{
  "common_data": {
    "L2": {
      "nonce": 0,
      "fee": {
        "gas_limit": "0xf4240",
        "max_fee_per_gas": "0xee6b280",
        "max_priority_fee_per_gas": "0x1",
        "gas_per_pubdata_limit": "0xc350"
      },
      "initiatorAddress": "0xf52b39c79aa38b412b5f531c8716c6f5a0db3b7f",
      "signature": [
        2,
        189,
        131,
        42,
        204,
        23,
        176,
        166,
        80,
        54,
        26,
        71,
        9,
        70,
        192,
        30,
        184,
        162,
        85,
        248,
        172,
        1,
        165,
        189,
        109,
        90,
        23,
        11,
        214,
        210,
        153,
        224,
        73,
        226,
        28,
        27,
        3,
        179,
        216,
        212,
        97,
        164,
        79,
        180,
        212,
        16,
        174,
        14,
        7,
        63,
        240,
        191,
        186,
        209,
        148,
        152,
        195,
        226,
        189,
        191,
        218,
        255,
        88,
        142,
        28
      ],
      "transactionType": "EIP1559Transaction",
      "input": {
        "hash": "0xe8e692753c07cd0c8d311e4bc65a2b089688847dffedb41e5dda26b004c7ae3f",
        "data": [
          2,
          248,
          105,
          130,
          1,
          14,
          128,
          1,
          132,
          14,
          230,
          178,
          128,
          131,
          15,
          66,
          64,
          148,
          0,
          0,
          0,
          0,
          0,
          0,
          0,
          0,
          0,
          0,
          0,
          0,
          0,
          0,
          0,
          0,
          222,
          173,
          190,
          239,
          1,
          128,
          192,
          1,
          160,
          2,
          189,
          131,
          42,
          204,
          23,
          176,
          166,
          80,
          54,
          26,
          71,
          9,
          70,
          192,
          30,
          184,
          162,
          85,
          248,
          172,
          1,
          165,
          189,
          109,
          90,
          23,
          11,
          214,
          210,
          153,
          224,
          160,
          73,
          226,
          28,
          27,
          3,
          179,
          216,
          212,
          97,
          164,
          79,
          180,
          212,
          16,
          174,
          14,
          7,
          63,
          240,
          191,
          186,
          209,
          148,
          152,
          195,
          226,
          189,
          191,
          218,
          255,
          88,
          142
        ]
      },
      "paymasterParams": {
        "paymaster": "0x0000000000000000000000000000000000000000",
        "paymasterInput": []
      }
    }
  },
  "execute": {
    "contractAddress": "0x00000000000000000000000000000000deadbeef",
    "calldata": "0x",
    "value": "0x1",
    "factoryDeps": []
  },
  "received_timestamp_ms": 1770205306278,
  "raw_bytes": "0x02f86982010e8001840ee6b280830f42409400000000000000000000000000000000deadbeef0180c001a002bd832acc17b0a650361a470946c01eb8a255f8ac01a5bd6d5a170bd6d299e0a049e21c1b03b3d8d461a44fb4d410ae0e073ff0bfbad19498c3e2bdbfdaff588e"
}